:020000020000FC
:1000000000C00AE00EBF0FEF0DBF0EEF04B907B935
:100010000AB992D060E0062F03952CD0462F50E00D
:10002000042F28D093D0052F56D04C3019F043958B
:100030005395F6CF4CE000E0061719F04A9503956A
:10004000FBCF5CE0042F16D081D0052F44D04A9519
:100050005A954130B9F782D079D078D063956B301A
:10006000D1F660E06ED072D071D066D06FD06ED015
:10007000D2CFCFCF013011F471D02CC0023011F4A7
:1000800071D028C0033011F471D024C0043011F4B1
:1000900071D020C0053011F471D01CC0063011F4AD
:1000A00071D018C0073011F471D014C0083011F4A9
:1000B00071D010C0093011F471D00CC00A3011F4A5
:1000C00071D008C00B3011F471D004C00C3011F4A1
:1000D00071D000C00895013011F442D02CC002301C
:1000E00011F442D028C0033011F442D024C00430AF
:1000F00011F442D020C0053011F442D01CC00630AB
:1001000011F442D018C0073011F442D014C00830A6
:1001100011F442D010C0093011F442D00CC00A30A2
:1001200011F442D008C00B3011F442D004C00C309E
:1001300011F442D000C0089500E005B908B90BB928
:1001400008950FEF05B908B90BB9089534E01A9571
:10015000F1F72A95E1F73A95D1F708952F9A089586
:100160002F9808952B9A08952B980895299A089509
:10017000299808952A9A08952A9808955C9A0895CE
:100180005C9808955E9A08955E9808955F9A089520
:100190005F9808952C9A08952C9808952D9A0895A3
:1001A0002D9808952E9A08952E980895469A0895A8
:0C01B00046980895479A089547980895CE
:00000001FF
